{
  "_format": "hh-sol-artifact-1",
  "contractName": "MedicalAnchor",
  "sourceName": "contracts/MedicalAnchor.sol",
  "abi": [
    {
      "inputs": [],
      "stateMutability": "nonpayable",
      "type": "constructor"
    },
    {
      "anonymous": false,
      "inputs": [
        {
          "indexed": true,
          "internalType": "string",
          "name": "recordId",
          "type": "string"
        },
        {
          "indexed": true,
          "internalType": "address",
          "name": "owner",
          "type": "address"
        },
        {
          "indexed": true,
          "internalType": "address",
          "name": "grantedTo",
          "type": "address"
        },
        {
          "indexed": false,
          "internalType": "uint256",
          "name": "timestamp",
          "type": "uint256"
        }
      ],
      "name": "AccessGranted",
      "type": "event"
    },
    {
      "anonymous": false,
      "inputs": [
        {
          "indexed": true,
          "internalType": "string",
          "name": "recordId",
          "type": "string"
        },
        {
          "indexed": true,
          "internalType": "address",
          "name": "requester",
          "type": "address"
        },
        {
          "indexed": true,
          "internalType": "address",
          "name": "owner",
          "type": "address"
        },
        {
          "indexed": false,
          "internalType": "uint256",
          "name": "timestamp",
          "type": "uint256"
        }
      ],
      "name": "AccessRequested",
      "type": "event"
    },
    {
      "anonymous": false,
      "inputs": [
        {
          "indexed": true,
          "internalType": "string",
          "name": "recordId",
          "type": "string"
        },
        {
          "indexed": true,
          "internalType": "address",
          "name": "owner",
          "type": "address"
        },
        {
          "indexed": true,
          "internalType": "address",
          "name": "revokedFrom",
          "type": "address"
        },
        {
          "indexed": false,
          "internalType": "uint256",
          "name": "timestamp",
          "type": "uint256"
        }
      ],
      "name": "AccessRevoked",
      "type": "event"
    },
    {
      "anonymous": false,
      "inputs": [
        {
          "indexed": true,
          "internalType": "address",
          "name": "hospitalAddress",
          "type": "address"
        },
        {
          "indexed": false,
          "internalType": "string",
          "name": "hospitalId",
          "type": "string"
        },
        {
          "indexed": false,
          "internalType": "string",
          "name": "name",
          "type": "string"
        },
        {
          "indexed": false,
          "internalType": "uint256",
          "name": "timestamp",
          "type": "uint256"
        }
      ],
      "name": "HospitalRegistered",
      "type": "event"
    },
    {
      "anonymous": false,
      "inputs": [
        {
          "indexed": true,
          "internalType": "string",
          "name": "fabricTxId",
          "type": "string"
        },
        {
          "indexed": true,
          "internalType": "bytes32",
          "name": "dataHash",
          "type": "bytes32"
        },
        {
          "indexed": true,
          "internalType": "address",
          "name": "hospital",
          "type": "address"
        },
        {
          "indexed": false,
          "internalType": "uint256",
          "name": "timestamp",
          "type": "uint256"
        }
      ],
      "name": "ProofAnchored",
      "type": "event"
    },
    {
      "inputs": [
        {
          "internalType": "string",
          "name": "",
          "type": "string"
        },
        {
          "internalType": "address",
          "name": "",
          "type": "address"
        }
      ],
      "name": "accessPermissions",
      "outputs": [
        {
          "internalType": "bool",
          "name": "",
          "type": "bool"
        }
      ],
      "stateMutability": "view",
      "type": "function"
    },
    {
      "inputs": [
        {
          "internalType": "string",
          "name": "",
          "type": "string"
        },
        {
          "internalType": "address",
          "name": "",
          "type": "address"
        }
      ],
      "name": "accessRequests",
      "outputs": [
        {
          "internalType": "address",
          "name": "requester",
          "type": "address"
        },
        {
          "internalType": "address",
          "name": "owner",
          "type": "address"
        },
        {
          "internalType": "string",
          "name": "recordId",
          "type": "string"
        },
        {
          "internalType": "uint256",
          "name": "requestedAt",
          "type": "uint256"
        },
        {
          "internalType": "bool",
          "name": "approved",
          "type": "bool"
        },
        {
          "internalType": "bool",
          "name": "pending",
          "type": "bool"
        }
      ],
      "stateMutability": "view",
      "type": "function"
    },
    {
      "inputs": [],
      "name": "admin",
      "outputs": [
        {
          "internalType": "address",
          "name": "",
          "type": "address"
        }
      ],
      "stateMutability": "view",
      "type": "function"
    },
    {
      "inputs": [
        {
          "internalType": "string",
          "name": "_fabricTxId",
          "type": "string"
        },
        {
          "internalType": "string",
          "name": "_hashString",
          "type": "string"
        }
      ],
      "name": "anchorHash",
      "outputs": [],
      "stateMutability": "nonpayable",
      "type": "function"
    },
    {
      "inputs": [
        {
          "internalType": "string",
          "name": "_recordId",
          "type": "string"
        },
        {
          "internalType": "address",
          "name": "_requester",
          "type": "address"
        }
      ],
      "name": "getAccessRequest",
      "outputs": [
        {
          "internalType": "address",
          "name": "requester",
          "type": "address"
        },
        {
          "internalType": "address",
          "name": "owner",
          "type": "address"
        },
        {
          "internalType": "uint256",
          "name": "requestedAt",
          "type": "uint256"
        },
        {
          "internalType": "bool",
          "name": "approved",
          "type": "bool"
        },
        {
          "internalType": "bool",
          "name": "pending",
          "type": "bool"
        }
      ],
      "stateMutability": "view",
      "type": "function"
    },
    {
      "inputs": [],
      "name": "getHospitalCount",
      "outputs": [
        {
          "internalType": "uint256",
          "name": "",
          "type": "uint256"
        }
      ],
      "stateMutability": "view",
      "type": "function"
    },
    {
      "inputs": [
        {
          "internalType": "address",
          "name": "_hospital",
          "type": "address"
        }
      ],
      "name": "getHospitalInfo",
      "outputs": [
        {
          "internalType": "string",
          "name": "hospitalId",
          "type": "string"
        },
        {
          "internalType": "string",
          "name": "name",
          "type": "string"
        },
        {
          "internalType": "bool",
          "name": "isRegistered",
          "type": "bool"
        },
        {
          "internalType": "uint256",
          "name": "registeredAt",
          "type": "uint256"
        }
      ],
      "stateMutability": "view",
      "type": "function"
    },
    {
      "inputs": [
        {
          "internalType": "string",
          "name": "_fabricTxId",
          "type": "string"
        }
      ],
      "name": "getProof",
      "outputs": [
        {
          "internalType": "bytes32",
          "name": "dataHash",
          "type": "bytes32"
        },
        {
          "internalType": "uint256",
          "name": "timestamp",
          "type": "uint256"
        },
        {
          "internalType": "address",
          "name": "hospitalNode",
          "type": "address"
        },
        {
          "internalType": "bool",
          "name": "exists",
          "type": "bool"
        }
      ],
      "stateMutability": "view",
      "type": "function"
    },
    {
      "inputs": [
        {
          "internalType": "string",
          "name": "_recordId",
          "type": "string"
        },
        {
          "internalType": "address",
          "name": "_requesterHospital",
          "type": "address"
        }
      ],
      "name": "grantAccess",
      "outputs": [],
      "stateMutability": "nonpayable",
      "type": "function"
    },
    {
      "inputs": [
        {
          "internalType": "string",
          "name": "_recordId",
          "type": "string"
        },
        {
          "internalType": "address",
          "name": "_hospital",
          "type": "address"
        }
      ],
      "name": "hasAccess",
      "outputs": [
        {
          "internalType": "bool",
          "name": "",
          "type": "bool"
        }
      ],
      "stateMutability": "view",
      "type": "function"
    },
    {
      "inputs": [
        {
          "internalType": "address",
          "name": "",
          "type": "address"
        }
      ],
      "name": "hospitals",
      "outputs": [
        {
          "internalType": "string",
          "name": "hospitalId",
          "type": "string"
        },
        {
          "internalType": "string",
          "name": "name",
          "type": "string"
        },
        {
          "internalType": "bool",
          "name": "isRegistered",
          "type": "bool"
        },
        {
          "internalType": "uint256",
          "name": "registeredAt",
          "type": "uint256"
        }
      ],
      "stateMutability": "view",
      "type": "function"
    },
    {
      "inputs": [
        {
          "internalType": "address",
          "name": "_address",
          "type": "address"
        }
      ],
      "name": "isHospitalRegistered",
      "outputs": [
        {
          "internalType": "bool",
          "name": "",
          "type": "bool"
        }
      ],
      "stateMutability": "view",
      "type": "function"
    },
    {
      "inputs": [
        {
          "internalType": "string",
          "name": "",
          "type": "string"
        }
      ],
      "name": "proofs",
      "outputs": [
        {
          "internalType": "bytes32",
          "name": "dataHash",
          "type": "bytes32"
        },
        {
          "internalType": "uint256",
          "name": "timestamp",
          "type": "uint256"
        },
        {
          "internalType": "address",
          "name": "hospitalNode",
          "type": "address"
        },
        {
          "internalType": "string",
          "name": "fabricTxId",
          "type": "string"
        },
        {
          "internalType": "bool",
          "name": "exists",
          "type": "bool"
        }
      ],
      "stateMutability": "view",
      "type": "function"
    },
    {
      "inputs": [
        {
          "internalType": "address",
          "name": "_hospitalAddress",
          "type": "address"
        },
        {
          "internalType": "string",
          "name": "_hospitalId",
          "type": "string"
        },
        {
          "internalType": "string",
          "name": "_name",
          "type": "string"
        }
      ],
      "name": "registerHospital",
      "outputs": [],
      "stateMutability": "nonpayable",
      "type": "function"
    },
    {
      "inputs": [
        {
          "internalType": "uint256",
          "name": "",
          "type": "uint256"
        }
      ],
      "name": "registeredHospitals",
      "outputs": [
        {
          "internalType": "address",
          "name": "",
          "type": "address"
        }
      ],
      "stateMutability": "view",
      "type": "function"
    },
    {
      "inputs": [
        {
          "internalType": "string",
          "name": "_recordId",
          "type": "string"
        },
        {
          "internalType": "address",
          "name": "_ownerHospital",
          "type": "address"
        }
      ],
      "name": "requestAccess",
      "outputs": [],
      "stateMutability": "nonpayable",
      "type": "function"
    },
    {
      "inputs": [
        {
          "internalType": "string",
          "name": "_recordId",
          "type": "string"
        },
        {
          "internalType": "address",
          "name": "_hospitalToRevoke",
          "type": "address"
        }
      ],
      "name": "revokeAccess",
      "outputs": [],
      "stateMutability": "nonpayable",
      "type": "function"
    },
    {
      "inputs": [
        {
          "internalType": "string",
          "name": "_fabricTxId",
          "type": "string"
        },
        {
          "internalType": "string",
          "name": "_candidateHashString",
          "type": "string"
        }
      ],
      "name": "verifyIntegrity",
      "outputs": [
        {
          "internalType": "bool",
          "name": "",
          "type": "bool"
        }
      ],
      "stateMutability": "view",
      "type": "function"
    }
  ],
  "bytecode": "0x608060405234801561001057600080fd5b50600080546001600160a01b03191633179055611d9e806100326000396000f3fe608060405234801561001057600080fd5b50600436106101165760003560e01c8063a1c25ecb116100a2578063dfe0b5fe11610071578063dfe0b5fe14610324578063f093cf8014610337578063f37c215e1461034a578063f851a4401461035d578063fe45a81d1461037057600080fd5b8063a1c25ecb14610272578063bc84243e1461029d578063d57763a1146102cd578063dc633b6c1461031157600080fd5b80633b18f691116100e95780633b18f6911461019057806347aa6f05146101b457806349d41e83146101fe57806381b41239146102115780638486f67a1461024f57600080fd5b806313bd20e21461011b57806314d585c91461014357806317b9df441461015657806324fbe10a1461016b575b600080fd5b61012e610129366004611850565b610381565b60405190151581526020015b60405180910390f35b61012e61015136600461189e565b6103c5565b610169610164366004611850565b610468565b005b61017e610179366004611850565b610806565b60405161013a96959493929190611952565b6101a361019e36600461199e565b6108f3565b60405161013a9594939291906119db565b6101c76101c2366004611850565b6109c8565b604080516001600160a01b03968716815295909416602086015292840191909152151560608301521515608082015260a00161013a565b61016961020c366004611a1c565b610b11565b61012e61021f366004611850565b81516020818401810180516003825292820194820194909420919093529091526000908152604090205460ff1681565b61026261025d366004611a90565b610cf3565b60405161013a9493929190611ab2565b610285610280366004611aeb565b610e8d565b6040516001600160a01b03909116815260200161013a565b61012e6102ab366004611a90565b6001600160a01b03166000908152600260208190526040909120015460ff1690565b6102e06102db36600461199e565b610eb7565b60405161013a949392919093845260208401929092526001600160a01b031660408301521515606082015260800190565b61016961031f36600461189e565b610fd5565b610169610332366004611850565b6111fe565b610262610345366004611a90565b6113ff565b610169610358366004611850565b61153b565b600054610285906001600160a01b031681565b60055460405190815260200161013a565b60006003836040516103939190611b04565b908152604080519182900360209081019092206001600160a01b0385166000908152925290205460ff16905092915050565b60006001836040516103d79190611b04565b9081526040519081900360200190206004015460ff166104125760405162461bcd60e51b815260040161040990611b20565b60405180910390fd5b6000826040516020016104259190611b04565b6040516020818303038152906040528051906020012090508060018560405161044e9190611b04565b908152604051908190036020019020541491505092915050565b336000908152600260208190526040909120015460ff1661049b5760405162461bcd60e51b815260040161040990611b4f565b6001826040516104ab9190611b04565b9081526040519081900360200190206004015460ff166104dd5760405162461bcd60e51b815260040161040990611b20565b806001600160a01b03166001836040516104f79190611b04565b908152604051908190036020019020600201546001600160a01b0316146105725760405162461bcd60e51b815260206004820152602960248201527f5370656369666965642061646472657373206973206e6f74207468652072656360448201526837b9321037bbb732b960b91b6064820152608401610409565b6001600160a01b03811633036105d65760405162461bcd60e51b815260206004820152602360248201527f43616e6e6f7420726571756573742061636365737320746f206f776e207265636044820152621bdc9960ea1b6064820152608401610409565b6003826040516105e69190611b04565b9081526040805160209281900383019020336000908152925290205460ff16156106475760405162461bcd60e51b8152602060048201526012602482015271416c7265616479206861732061636365737360701b6044820152606401610409565b6004826040516106579190611b04565b90815260408051602092819003830190203360009081529252902060040154610100900460ff16156106cb5760405162461bcd60e51b815260206004820152601760248201527f5265717565737420616c72656164792070656e64696e670000000000000000006044820152606401610409565b6040805160c0810182523381526001600160a01b038316602082015280820184905242606082015260006080820152600160a08201529051600490610711908590611b04565b9081526040805160209281900383019020336000908152908352819020835181546001600160a01b03199081166001600160a01b039283161783559385015160018301805490951691161790925582015160028201906107719082611c29565b506060820151600382015560808201516004909101805460a09093015115156101000261ff00199215159290921661ffff19909316929092171790556040516001600160a01b0382169033906107c8908590611b04565b604051908190038120428252907f0249fbbae56d2d89799b50e35cfc6b03f0b0603b83da7ee6f574187fbe4b3f7a9060200160405180910390a45050565b815180830160209081018051600482529282019482019490942091909352909152600090815260409020805460018201546002830180546001600160a01b0393841694929093169261085790611ba0565b80601f016020809104026020016040519081016040528092919081815260200182805461088390611ba0565b80156108d05780601f106108a5576101008083540402835291602001916108d0565b820191906000526020600020905b8154815290600101906020018083116108b357829003601f168201915b50505050600383015460049093015491929160ff80821692506101009091041686565b8051602081830181018051600180835293830192909401919091209290528154908201546002830154600384018054939492936001600160a01b03909216929161093c90611ba0565b80601f016020809104026020016040519081016040528092919081815260200182805461096890611ba0565b80156109b55780601f1061098a576101008083540402835291602001916109b5565b820191906000526020600020905b81548152906001019060200180831161099857829003601f168201915b5050506004909301549192505060ff1685565b6000806000806000806004886040516109e19190611b04565b9081526040805191829003602090810183206001600160a01b03808c1660009081529183529083902060c0850184528054821685526001810154909116918401919091526002810180549192840191610a3990611ba0565b80601f0160208091040260200160405190810160405280929190818152602001828054610a6590611ba0565b8015610ab25780601f10610a8757610100808354040283529160200191610ab2565b820191906000526020600020905b815481529060010190602001808311610a9557829003601f168201915b5050509183525050600382015460208083019190915260049092015460ff8082161515604084015261010090910416151560609182015282519183015190830151608084015160a090940151929c919b50995091975095509350505050565b6000546001600160a01b03163314610b765760405162461bcd60e51b815260206004820152602260248201527f4f6e6c792061646d696e2063616e20706572666f726d2074686973206163746960448201526137b760f11b6064820152608401610409565b6001600160a01b0383166000908152600260208190526040909120015460ff1615610be35760405162461bcd60e51b815260206004820152601b60248201527f486f73706974616c20616c7265616479207265676973746572656400000000006044820152606401610409565b6040805160808101825283815260208082018490526001828401524260608301526001600160a01b038616600090815260029091529190912081518190610c2a9082611c29565b5060208201516001820190610c3f9082611c29565b5060408281015160028301805460ff1916911515919091179055606090920151600390910155600580546001810182556000919091527f036b6384b5eca791c62761152d0c79bb0604c104a5fb6f4eb0703f3154bb3db00180546001600160a01b0319166001600160a01b03861690811790915590517f56201a8cff7a34f4322d1eb5be4c3ddb325561d603fcfbaff8ae33acd346531990610ce690859085904290611ce9565b60405180910390a2505050565b606080600080600060026000876001600160a01b03166001600160a01b03168152602001908152602001600020604051806080016040529081600082018054610d3b90611ba0565b80601f0160208091040260200160405190810160405280929190818152602001828054610d6790611ba0565b8015610db45780601f10610d8957610100808354040283529160200191610db4565b820191906000526020600020905b815481529060010190602001808311610d9757829003601f168201915b50505050508152602001600182018054610dcd90611ba0565b80601f0160208091040260200160405190810160405280929190818152602001828054610df990611ba0565b8015610e465780601f10610e1b57610100808354040283529160200191610e46565b820191906000526020600020905b815481529060010190602001808311610e2957829003601f168201915b5050509183525050600282015460ff161515602080830191909152600390920154604091820152825191830151908301516060909301519199909850919650945092505050565b60058181548110610e9d57600080fd5b6000918252602090912001546001600160a01b0316905081565b6000806000806000600186604051610ecf9190611b04565b90815260408051918290036020908101832060a0840183528054845260018101549184019190915260028101546001600160a01b031691830191909152600381018054606084019190610f2190611ba0565b80601f0160208091040260200160405190810160405280929190818152602001828054610f4d90611ba0565b8015610f9a5780601f10610f6f57610100808354040283529160200191610f9a565b820191906000526020600020905b815481529060010190602001808311610f7d57829003601f168201915b50505091835250506004919091015460ff16151560209182015281519082015160408301516080909301519199909850919650945092505050565b336000908152600260208190526040909120015460ff166110085760405162461bcd60e51b815260040161040990611b4f565b6001826040516110189190611b04565b9081526040519081900360200190206004015460ff161561108d5760405162461bcd60e51b815260206004820152602960248201527f50726f6f6620616c72656164792065786973747320666f72207468697320747260448201526830b739b0b1ba34b7b760b91b6064820152608401610409565b6000816040516020016110a09190611b04565b6040516020818303038152906040528051906020012090506040518060a00160405280828152602001428152602001336001600160a01b03168152602001848152602001600115158152506001846040516110fb9190611b04565b9081526040805160209281900383019020835181559183015160018301558201516002820180546001600160a01b0319166001600160a01b03909216919091179055606082015160038201906111519082611c29565b50608091909101516004909101805460ff1916911515919091179055604051600190600390611181908690611b04565b90815260408051602092819003830181203360008181529190945291909120805460ff1916931515939093179092559082906111be908690611b04565b604051908190038120428252907f400a952dbbeca32fdca65119490a7fb3c953e10a44dd55efc2786b960b698572906020015b60405180910390a4505050565b8160018160405161120f9190611b04565b9081526040519081900360200190206004015460ff166112415760405162461bcd60e51b815260040161040990611b20565b336001600160a01b031660018260405161125b9190611b04565b908152604051908190036020019020600201546001600160a01b0316146112945760405162461bcd60e51b815260040161040990611d1f565b6003836040516112a49190611b04565b90815260408051602092819003830190206001600160a01b0385166000908152925290205460ff166113185760405162461bcd60e51b815260206004820152601d60248201527f486f73706974616c20646f6573206e6f742068617665206163636573730000006044820152606401610409565b336001600160a01b038316036113705760405162461bcd60e51b815260206004820152601860248201527f43616e6e6f74207265766f6b65206f776e2061636365737300000000000000006044820152606401610409565b60006003846040516113829190611b04565b90815260408051602092819003830181206001600160a01b03871660008181529190945291909120805460ff1916931515939093179092559033906113c8908690611b04565b604051908190038120428252907ffca9e5383feff2471021f2af92b9704199954a3966435d939edeaf684d47591b906020016111f1565b60026020526000908152604090208054819061141a90611ba0565b80601f016020809104026020016040519081016040528092919081815260200182805461144690611ba0565b80156114935780601f1061146857610100808354040283529160200191611493565b820191906000526020600020905b81548152906001019060200180831161147657829003601f168201915b5050505050908060010180546114a890611ba0565b80601f01602080910402602001604051908101604052809291908181526020018280546114d490611ba0565b80156115215780601f106114f657610100808354040283529160200191611521565b820191906000526020600020905b81548152906001019060200180831161150457829003601f168201915b505050506002830154600390930154919260ff1691905084565b8160018160405161154c9190611b04565b9081526040519081900360200190206004015460ff1661157e5760405162461bcd60e51b815260040161040990611b20565b336001600160a01b03166001826040516115989190611b04565b908152604051908190036020019020600201546001600160a01b0316146115d15760405162461bcd60e51b815260040161040990611d1f565b6004836040516115e19190611b04565b90815260408051602092819003830190206001600160a01b03851660009081529252902060040154610100900460ff1661166b5760405162461bcd60e51b815260206004820152602560248201527f4e6f2070656e64696e6720726571756573742066726f6d207468697320686f736044820152641c1a5d185b60da1b6064820152608401610409565b600160048460405161167d9190611b04565b90815260408051602092819003830181206001600160a01b038716600090815293529082206004908101805460ff1916941515949094179093559091906116c5908690611b04565b9081526040805191829003602090810183206001600160a01b038716600090815291522060040180549215156101000261ff001990931692909217909155600190600390611714908690611b04565b90815260408051602092819003830181206001600160a01b03871660008181529190945291909120805460ff19169315159390931790925590339061175a908690611b04565b604051908190038120428252907f822076acf43d1c461073057e021366b630aa0dd30fb0442d7ad8dbee1f84a8ba906020016111f1565b634e487b7160e01b600052604160045260246000fd5b600082601f8301126117b857600080fd5b813567ffffffffffffffff808211156117d3576117d3611791565b604051601f8301601f19908116603f011681019082821181831017156117fb576117fb611791565b8160405283815286602085880101111561181457600080fd5b836020870160208301376000602085830101528094505050505092915050565b80356001600160a01b038116811461184b57600080fd5b919050565b6000806040838503121561186357600080fd5b823567ffffffffffffffff81111561187a57600080fd5b611886858286016117a7565b92505061189560208401611834565b90509250929050565b600080604083850312156118b157600080fd5b823567ffffffffffffffff808211156118c957600080fd5b6118d5868387016117a7565b935060208501359150808211156118eb57600080fd5b506118f8858286016117a7565b9150509250929050565b60005b8381101561191d578181015183820152602001611905565b50506000910152565b6000815180845261193e816020860160208601611902565b601f01601f19169290920160200192915050565b6001600160a01b0387811682528616602082015260c06040820181905260009061197e90830187611926565b6060830195909552509115156080830152151560a0909101529392505050565b6000602082840312156119b057600080fd5b813567ffffffffffffffff8111156119c757600080fd5b6119d3848285016117a7565b949350505050565b85815284602082015260018060a01b038416604082015260a060608201526000611a0860a0830185611926565b905082151560808301529695505050505050565b600080600060608486031215611a3157600080fd5b611a3a84611834565b9250602084013567ffffffffffffffff80821115611a5757600080fd5b611a63878388016117a7565b93506040860135915080821115611a7957600080fd5b50611a86868287016117a7565b9150509250925092565b600060208284031215611aa257600080fd5b611aab82611834565b9392505050565b608081526000611ac56080830187611926565b8281036020840152611ad78187611926565b941515604084015250506060015292915050565b600060208284031215611afd57600080fd5b5035919050565b60008251611b16818460208701611902565b9190910192915050565b602080825260159082015274149958dbdc9908191bd95cc81b9bdd08195e1a5cdd605a1b604082015260600190565b60208082526031908201527f4f6e6c79207265676973746572656420686f73706974616c732063616e207065604082015270393337b936903a3434b99030b1ba34b7b760791b606082015260800190565b600181811c90821680611bb457607f821691505b602082108103611bd457634e487b7160e01b600052602260045260246000fd5b50919050565b601f821115611c2457600081815260208120601f850160051c81016020861015611c015750805b601f850160051c820191505b81811015611c2057828155600101611c0d565b5050505b505050565b815167ffffffffffffffff811115611c4357611c43611791565b611c5781611c518454611ba0565b84611bda565b602080601f831160018114611c8c5760008415611c745750858301515b600019600386901b1c1916600185901b178555611c20565b600085815260208120601f198616915b82811015611cbb57888601518255948401946001909101908401611c9c565b5085821015611cd95787850151600019600388901b60f8161c191681555b5050505050600190811b01905550565b606081526000611cfc6060830186611926565b8281036020840152611d0e8186611926565b915050826040830152949350505050565b60208082526029908201527f4f6e6c79207265636f7264206f776e65722063616e20706572666f726d20746860408201526834b99030b1ba34b7b760b91b60608201526080019056fea26469706673582212207bc9cf64aae84bc07170e8aacbb8b8a00592fab9cb6eb0ed3fcc896e870c339764736f6c63430008130033",
  "linkReferences": {},
  "deployedLinkReferences": {}
}